{"abi":[{"type":"constructor","inputs":[],"stateMutability":"payable"},{"type":"function","name":"aggro","inputs":[],"outputs":[{"name":"","type":"address","internalType":"address"}],"stateMutability":"view"},{"type":"function","name":"attack","inputs":[{"name":"_damage","type":"uint256","internalType":"uint256"}],"outputs":[],"stateMutability":"nonpayable"},{"type":"function","name":"lifePoints","inputs":[],"outputs":[{"name":"","type":"uint256","internalType":"uint256"}],"stateMutability":"view"},{"type":"function","name":"loot","inputs":[],"outputs":[],"stateMutability":"nonpayable"}],"bytecode":{"object":"0x60806040526103e85f819055506104bb806100195f395ff3fe608060405234801561000f575f5ffd5b506004361061004a575f3560e01c806341c2132f1461004e57806364dd891a1461006c5780639b7b2ab014610088578063d21d2cd114610092575b5f5ffd5b6100566100b0565b604051610063919061030a565b60405180910390f35b6100866004803603810190610081919061035a565b6100d5565b005b610090610207565b005b61009a610290565b6040516100a79190610394565b60405180910390f35b60015f9054906101000a900473ffffffffffffffffffffffffffffffffffffffff1681565b5f73ffffffffffffffffffffffffffffffffffffffff1660015f9054906101000a900473ffffffffffffffffffffffffffffffffffffffff1673ffffffffffffffffffffffffffffffffffffffff160361016a573360015f6101000a81548173ffffffffffffffffffffffffffffffffffffffff021916908373ffffffffffffffffffffffffffffffffffffffff1602179055505b610172610295565b80156101cb57503373ffffffffffffffffffffffffffffffffffffffff1660015f9054906101000a900473ffffffffffffffffffffffffffffffffffffffff1673ffffffffffffffffffffffffffffffffffffffff1614155b156101ec57805f5f8282546101e091906103da565b92505081905550610204565b5f5f5f8282546101fc91906103da565b925050819055505b50565b5f5f541461024a576040517f08c379a000000000000000000000000000000000000000000000000000000000815260040161024190610467565b60405180910390fd5b3373ffffffffffffffffffffffffffffffffffffffff166108fc4790811502906040515f60405180830381858888f1935050505015801561028d573d5f5f3e3d5ffd5b50565b5f5481565b5f3373ffffffffffffffffffffffffffffffffffffffff163273ffffffffffffffffffffffffffffffffffffffff161415905090565b5f73ffffffffffffffffffffffffffffffffffffffff82169050919050565b5f6102f4826102cb565b9050919050565b610304816102ea565b82525050565b5f60208201905061031d5f8301846102fb565b92915050565b5f5ffd5b5f819050919050565b61033981610327565b8114610343575f5ffd5b50565b5f8135905061035481610330565b92915050565b5f6020828403121561036f5761036e610323565b5b5f61037c84828501610346565b91505092915050565b61038e81610327565b82525050565b5f6020820190506103a75f830184610385565b92915050565b7f4e487b71000000000000000000000000000000000000000000000000000000005f52601160045260245ffd5b5f6103e482610327565b91506103ef83610327565b9250828203905081811115610407576104066103ad565b5b92915050565b5f82825260208201905092915050565b7f4372656174757265206973207374696c6c20616c6976652100000000000000005f82015250565b5f61045160188361040d565b915061045c8261041d565b602082019050919050565b5f6020820190508181035f83015261047e81610445565b905091905056fea26469706673582212209a124b6b01a0822e18dcae909d04bc45b19b0a54c66c4313db0443a1589158e964736f6c634300081e0033","linkReferences":{}},"methodIdentifiers":{"aggro()":"41c2132f","attack(uint256)":"64dd891a","lifePoints()":"d21d2cd1","loot()":"9b7b2ab0"},"id":23}