{"abi":[{"type":"constructor","inputs":[{"name":"_creatureAddress","type":"address","internalType":"address"}],"stateMutability":"nonpayable"},{"type":"receive","stateMutability":"payable"},{"type":"function","name":"attackCreature","inputs":[{"name":"_damage","type":"uint256","internalType":"uint256"}],"outputs":[],"stateMutability":"nonpayable"},{"type":"function","name":"creature","inputs":[],"outputs":[{"name":"","type":"address","internalType":"contract Creature"}],"stateMutability":"view"},{"type":"function","name":"lootCreature","inputs":[],"outputs":[],"stateMutability":"nonpayable"}],"bytecode":{"object":"0x608060405234801561000f575f5ffd5b50604051610477380380610477833981810160405281019061003191906100d4565b805f5f6101000a81548173ffffffffffffffffffffffffffffffffffffffff021916908373ffffffffffffffffffffffffffffffffffffffff160217905550506100ff565b5f5ffd5b5f73ffffffffffffffffffffffffffffffffffffffff82169050919050565b5f6100a38261007a565b9050919050565b6100b381610099565b81146100bd575f5ffd5b50565b5f815190506100ce816100aa565b92915050565b5f602082840312156100e9576100e8610076565b5b5f6100f6848285016100c0565b91505092915050565b61036b8061010c5f395ff3fe608060405260043610610037575f3560e01c80632b9648fd14610042578063beb8258b14610058578063dac13f6d146100805761003e565b3661003e57005b5f5ffd5b34801561004d575f5ffd5b506100566100aa565b005b348015610063575f5ffd5b5061007e6004803603810190610079919061024f565b61016b565b005b34801561008b575f5ffd5b506100946101f4565b6040516100a191906102f4565b60405180910390f35b5f5f9054906101000a900473ffffffffffffffffffffffffffffffffffffffff1673ffffffffffffffffffffffffffffffffffffffff16639b7b2ab06040518163ffffffff1660e01b81526004015f604051808303815f87803b15801561010f575f5ffd5b505af1158015610121573d5f5f3e3d5ffd5b505050503373ffffffffffffffffffffffffffffffffffffffff166108fc4790811502906040515f60405180830381858888f19350505050158015610168573d5f5f3e3d5ffd5b50565b5f5f9054906101000a900473ffffffffffffffffffffffffffffffffffffffff1673ffffffffffffffffffffffffffffffffffffffff166364dd891a826040518263ffffffff1660e01b81526004016101c4919061031c565b5f604051808303815f87803b1580156101db575f5ffd5b505af11580156101ed573d5f5f3e3d5ffd5b5050505050565b5f5f9054906101000a900473ffffffffffffffffffffffffffffffffffffffff1681565b5f5ffd5b5f819050919050565b61022e8161021c565b8114610238575f5ffd5b50565b5f8135905061024981610225565b92915050565b5f6020828403121561026457610263610218565b5b5f6102718482850161023b565b91505092915050565b5f73ffffffffffffffffffffffffffffffffffffffff82169050919050565b5f819050919050565b5f6102bc6102b76102b28461027a565b610299565b61027a565b9050919050565b5f6102cd826102a2565b9050919050565b5f6102de826102c3565b9050919050565b6102ee816102d4565b82525050565b5f6020820190506103075f8301846102e5565b92915050565b6103168161021c565b82525050565b5f60208201905061032f5f83018461030d565b9291505056fea2646970667358221220bfaa81e8f182a9994b12fcc381caf16b7e0e21a1b693a906753494a40c3097e264736f6c634300081e0033","linkReferences":{}},"methodIdentifiers":{"attackCreature(uint256)":"beb8258b","creature()":"dac13f6d","lootCreature()":"2b9648fd"},"id":21}